{
  "contractName": "AddressMapper",
  "abi": [
    {
      "inputs": [],
      "payable": false,
      "stateMutability": "nonpayable",
      "type": "constructor"
    },
    {
      "constant": true,
      "inputs": [
        {
          "internalType": "string",
          "name": "_key",
          "type": "string"
        }
      ],
      "name": "getAddress",
      "outputs": [
        {
          "internalType": "address payable",
          "name": "",
          "type": "address"
        }
      ],
      "payable": false,
      "stateMutability": "view",
      "type": "function"
    },
    {
      "constant": false,
      "inputs": [
        {
          "internalType": "string",
          "name": "_key",
          "type": "string"
        },
        {
          "internalType": "address payable",
          "name": "_value",
          "type": "address"
        }
      ],
      "name": "setAddressRelation",
      "outputs": [],
      "payable": false,
      "stateMutability": "nonpayable",
      "type": "function"
    }
  ],
  "bytecode": "0x608060405234801561001057600080fd5b5073017fd2dd0e8040de1292395464887f0b92d7c851600060405180807f53756d69746f6d6f204c69666500000000000000000000000000000000000000815250600d019050908152602001604051809103902060006101000a81548173ffffffffffffffffffffffffffffffffffffffff021916908373ffffffffffffffffffffffffffffffffffffffff16021790555061027e806100b16000396000f3fe608060405234801561001057600080fd5b50600436106100365760003560e01c8063b306a9da1461003b578063bf40fac1146100d4575b600080fd5b6100d26004803603604081101561005157600080fd5b810190808035906020019064010000000081111561006e57600080fd5b82018360208201111561008057600080fd5b803590602001918460018302840111640100000000831117156100a257600080fd5b9091929391929390803573ffffffffffffffffffffffffffffffffffffffff16906020019092919050505061018d565b005b61014b600480360360208110156100ea57600080fd5b810190808035906020019064010000000081111561010757600080fd5b82018360208201111561011957600080fd5b8035906020019184600183028401116401000000008311171561013b57600080fd5b90919293919293905050506101f8565b604051808273ffffffffffffffffffffffffffffffffffffffff1673ffffffffffffffffffffffffffffffffffffffff16815260200191505060405180910390f35b8060008484604051808383808284378083019250505092505050908152602001604051809103902060006101000a81548173ffffffffffffffffffffffffffffffffffffffff021916908373ffffffffffffffffffffffffffffffffffffffff160217905550505050565b6000808383604051808383808284378083019250505092505050908152602001604051809103902060009054906101000a900473ffffffffffffffffffffffffffffffffffffffff1690509291505056fea265627a7a72315820debac07cf3d467f9b17146002ee34f4ac5c122612c62481f144cafc34948e67264736f6c63430005100032",
  "source": "pragma solidity >=0.4.21 <0.7.0;\n\ncontract AddressMapper {\n\n    mapping(string => address payable) addressMap;\n\n    // TODO remove\n    constructor() public {\n        addressMap[\"Sumitomo Life\"] = 0x017fd2dd0E8040dE1292395464887F0b92D7C851;\n    }\n\n    function getAddress(string calldata _key) external view returns (address payable) {\n        return addressMap[_key];\n    }\n\n    function setAddressRelation(string calldata _key, address payable _value) external {\n        addressMap[_key] = _value;\n    }\n}",
  "sourcePath": "/Users/tanakamotoaki/workspace/reactProjects/truffle-box-react/contracts/AddressMapper.sol",
  "compiler": {
    "name": "solc",
    "version": "0.5.16+commit.9c3226ce.Emscripten.clang"
  },
  "schemaVersion": "3.0.23",
  "updatedAt": "2020-03-09T11:03:07.060Z",
  "networkType": "ethereum",
  "devdoc": {
    "methods": {}
  },
  "userdoc": {
    "methods": {}
  }
}