{
  "contractName": "InsuranceFactory",
  "abi": [
    {
      "inputs": [],
      "payable": false,
      "stateMutability": "nonpayable",
      "type": "constructor"
    },
    {
      "anonymous": false,
      "inputs": [
        {
          "indexed": true,
          "internalType": "address",
          "name": "creator",
          "type": "address"
        },
        {
          "indexed": false,
          "internalType": "address",
          "name": "insurance",
          "type": "address"
        }
      ],
      "name": "Created",
      "type": "event"
    },
    {
      "constant": true,
      "inputs": [],
      "name": "addressMapper",
      "outputs": [
        {
          "internalType": "address",
          "name": "",
          "type": "address"
        }
      ],
      "payable": false,
      "stateMutability": "view",
      "type": "function"
    },
    {
      "constant": true,
      "inputs": [
        {
          "internalType": "address",
          "name": "",
          "type": "address"
        }
      ],
      "name": "insurances",
      "outputs": [
        {
          "internalType": "address",
          "name": "",
          "type": "address"
        }
      ],
      "payable": false,
      "stateMutability": "view",
      "type": "function"
    },
    {
      "constant": true,
      "inputs": [],
      "name": "owner",
      "outputs": [
        {
          "internalType": "address",
          "name": "",
          "type": "address"
        }
      ],
      "payable": false,
      "stateMutability": "view",
      "type": "function"
    },
    {
      "constant": false,
      "inputs": [],
      "name": "createInsurance",
      "outputs": [],
      "payable": false,
      "stateMutability": "nonpayable",
      "type": "function"
    },
    {
      "constant": false,
      "inputs": [
        {
          "internalType": "address",
          "name": "_addressMapper",
          "type": "address"
        }
      ],
      "name": "setAddressMapper",
      "outputs": [],
      "payable": false,
      "stateMutability": "nonpayable",
      "type": "function"
    }
  ],
  "bytecode": "0x608060405234801561001057600080fd5b50336000806101000a81548173ffffffffffffffffffffffffffffffffffffffff021916908373ffffffffffffffffffffffffffffffffffffffff160217905550613831806100606000396000f3fe608060405234801561001057600080fd5b50600436106100575760003560e01c806327bae60a1461005c57806342b1b37a146100e05780638da5cb5b146100ea578063c618b2da14610134578063d597c08114610178575b600080fd5b61009e6004803603602081101561007257600080fd5b81019080803573ffffffffffffffffffffffffffffffffffffffff1690602001909291905050506101c2565b604051808273ffffffffffffffffffffffffffffffffffffffff1673ffffffffffffffffffffffffffffffffffffffff16815260200191505060405180910390f35b6100e86101f5565b005b6100f2610376565b604051808273ffffffffffffffffffffffffffffffffffffffff1673ffffffffffffffffffffffffffffffffffffffff16815260200191505060405180910390f35b6101766004803603602081101561014a57600080fd5b81019080803573ffffffffffffffffffffffffffffffffffffffff16906020019092919050505061039b565b005b6101806103df565b604051808273ffffffffffffffffffffffffffffffffffffffff1673ffffffffffffffffffffffffffffffffffffffff16815260200191505060405180910390f35b60016020528060005260406000206000915054906101000a900473ffffffffffffffffffffffffffffffffffffffff1681565b6000600260009054906101000a900473ffffffffffffffffffffffffffffffffffffffff1660405161022690610405565b808273ffffffffffffffffffffffffffffffffffffffff1673ffffffffffffffffffffffffffffffffffffffff168152602001915050604051809103906000f080158015610278573d6000803e3d6000fd5b50905080600160003373ffffffffffffffffffffffffffffffffffffffff1673ffffffffffffffffffffffffffffffffffffffff16815260200190815260200160002060006101000a81548173ffffffffffffffffffffffffffffffffffffffff021916908373ffffffffffffffffffffffffffffffffffffffff1602179055503373ffffffffffffffffffffffffffffffffffffffff167f587ece4cd19692c5be1a4184503d607d45542d2aca0698c0068f52e09ccb541c82604051808273ffffffffffffffffffffffffffffffffffffffff1673ffffffffffffffffffffffffffffffffffffffff16815260200191505060405180910390a250565b6000809054906101000a900473ffffffffffffffffffffffffffffffffffffffff1681565b80600260006101000a81548173ffffffffffffffffffffffffffffffffffffffff021916908373ffffffffffffffffffffffffffffffffffffffff16021790555050565b600260009054906101000a900473ffffffffffffffffffffffffffffffffffffffff1681565b6133ea806104138339019056fe60806040526000600560006101000a81548173ffffffffffffffffffffffffffffffffffffffff021916908373ffffffffffffffffffffffffffffffffffffffff16021790555060006008556000600960006101000a81548173ffffffffffffffffffffffffffffffffffffffff021916908373ffffffffffffffffffffffffffffffffffffffff1602179055506000600a60146101000a81548160ff0219169083151502179055503480156100b457600080fd5b506040516133ea3803806133ea833981810160405260208110156100d757600080fd5b810190808051906020019092919050505080600a60006101000a81548173ffffffffffffffffffffffffffffffffffffffff021916908373ffffffffffffffffffffffffffffffffffffffff160217905550506132b1806101396000396000f3fe6080604052600436106101145760003560e01c80635df5e71e116100a0578063ba5a72d011610064578063ba5a72d0146105c2578063d597c081146105f1578063d679e02a14610648578063db7d0b761461069f578063f7bfca8d146106a957610114565b80635df5e71e146104845780635e57966d146104b3578063709fc9451461057d57806372365e6614610594578063762b6f0c146105ab57610114565b80632c71d93d116100e75780632c71d93d1461025657806338bbfa50146102815780633ccfd60b146103ea5780635aa68ac0146104015780635b9f9c281461046d57610114565b806317d2d0fc146101195780631821d69614610123578063261e256c1461017a57806327dc297e14610184575b600080fd5b6101216106d4565b005b34801561012f57600080fd5b50610138610734565b604051808273ffffffffffffffffffffffffffffffffffffffff1673ffffffffffffffffffffffffffffffffffffffff16815260200191505060405180910390f35b61018261075a565b005b34801561019057600080fd5b50610254600480360360408110156101a757600080fd5b8101908080359060200190929190803590602001906401000000008111156101ce57600080fd5b8201836020820111156101e057600080fd5b8035906020019184600183028401116401000000008311171561020257600080fd5b91908080601f016020809104026020016040519081016040528093929190818152602001838380828437600081840152601f19601f820116905080830192505050505050509192919290505050610912565b005b34801561026257600080fd5b5061026b610b29565b6040518082815260200191505060405180910390f35b34801561028d57600080fd5b506103e8600480360360608110156102a457600080fd5b8101908080359060200190929190803590602001906401000000008111156102cb57600080fd5b8201836020820111156102dd57600080fd5b803590602001918460018302840111640100000000831117156102ff57600080fd5b91908080601f016020809104026020016040519081016040528093929190818152602001838380828437600081840152601f19601f8201169050808301925050505050505091929192908035906020019064010000000081111561036257600080fd5b82018360208201111561037457600080fd5b8035906020019184600183028401116401000000008311171561039657600080fd5b91908080601f016020809104026020016040519081016040528093929190818152602001838380828437600081840152601f19601f820116905080830192505050505050509192919290505050610b2f565b005b3480156103f657600080fd5b506103ff610b52565b005b34801561040d57600080fd5b50610416610d91565b6040518080602001828103825283818151815260200191508051906020019060200280838360005b8381101561045957808201518184015260208101905061043e565b505050509050019250505060405180910390f35b34801561047957600080fd5b50610482610e62565b005b34801561049057600080fd5b50610499610f22565b604051808215151515815260200191505060405180910390f35b3480156104bf57600080fd5b50610502600480360360208110156104d657600080fd5b81019080803573ffffffffffffffffffffffffffffffffffffffff169060200190929190505050611005565b6040518080602001828103825283818151815260200191508051906020019080838360005b83811015610542578082015181840152602081019050610527565b50505050905090810190601f16801561056f5780820380516001836020036101000a031916815260200191505b509250505060405180910390f35b34801561058957600080fd5b50610592611286565b005b3480156105a057600080fd5b506105a961138f565b005b3480156105b757600080fd5b506105c0611445565b005b3480156105ce57600080fd5b506105d7611579565b604051808215151515815260200191505060405180910390f35b3480156105fd57600080fd5b5061060661158c565b604051808273ffffffffffffffffffffffffffffffffffffffff1673ffffffffffffffffffffffffffffffffffffffff16815260200191505060405180910390f35b34801561065457600080fd5b5061065d6115b2565b604051808273ffffffffffffffffffffffffffffffffffffffff1673ffffffffffffffffffffffffffffffffffffffff16815260200191505060405180910390f35b6106a76115d8565b005b3480156106b557600080fd5b506106be611713565b6040518082815260200191505060405180910390f35b346008600082825401925050819055503373ffffffffffffffffffffffffffffffffffffffff167f2da466a7b24304f47e87fa2e1e5a81b9831ce54fec19055ce277ca2f39ba42c4346040518082815260200191505060405180910390a2565b600560009054906101000a900473ffffffffffffffffffffffffffffffffffffffff1681565b476107996040518060400160405280600b81526020017f636f6d7075746174696f6e000000000000000000000000000000000000000000815250611720565b11156107ef577fc4dc360d0a9c0677a3379ae0a3d81e887f761e65fdf3d7e00859d1bcd3c4738960405180806020018281038252604b8152602001806131fc604b913960600191505060405180910390a1610910565b7fc4dc360d0a9c0677a3379ae0a3d81e887f761e65fdf3d7e00859d1bcd3c473896040518080602001828103825260368152602001806132476036913960400191505060405180910390a161090e6040518060400160405280600381526020017f55524c00000000000000000000000000000000000000000000000000000000008152506040518060800160405280604a8152602001613153604a91396109096040518060400160405280601681526020017f7b22696e737572616e636541646472657373223a2022000000000000000000008152506108ce30611005565b6040518060400160405280600281526020017f227d000000000000000000000000000000000000000000000000000000000000815250611ab1565b611c94565b505b565b61091a612248565b73ffffffffffffffffffffffffffffffffffffffff163373ffffffffffffffffffffffffffffffffffffffff161461095157600080fd5b606081905060008151141561096557600080fd5b610a80600a60009054906101000a900473ffffffffffffffffffffffffffffffffffffffff1673ffffffffffffffffffffffffffffffffffffffff1663bf40fac1846040518263ffffffff1660e01b81526004018080602001828103825283818151815260200191508051906020019080838360005b838110156109f65780820151818401526020810190506109db565b50505050905090810190601f168015610a235780820380516001836020036101000a031916815260200191505b509250505060206040518083038186803b158015610a4057600080fd5b505afa158015610a54573d6000803e3d6000fd5b505050506040513d6020811015610a6a57600080fd5b8101908080519060200190929190505050612565565b610a886125a9565b7fa25f2099919c7f026f9326edd9b612739f6ef899978c6aa38ba12db0b7830cf7826040518080602001828103825283818151815260200191508051906020019080838360005b83811015610aea578082015181840152602081019050610acf565b50505050905090810190601f168015610b175780820380516001836020036101000a031916815260200191505b509250505060405180910390a1505050565b60085481565b6000801b600360008060001b815260200190815260200160002081905550505050565b600073ffffffffffffffffffffffffffffffffffffffff16600960009054906101000a900473ffffffffffffffffffffffffffffffffffffffff1673ffffffffffffffffffffffffffffffffffffffff161415610bae57600080fd5b3373ffffffffffffffffffffffffffffffffffffffff16600960009054906101000a900473ffffffffffffffffffffffffffffffffffffffff1673ffffffffffffffffffffffffffffffffffffffff1614610c0857600080fd5b610c10610f22565b610c1957600080fd5b600060085490506000600881905550600073ffffffffffffffffffffffffffffffffffffffff16600560009054906101000a900473ffffffffffffffffffffffffffffffffffffffff1673ffffffffffffffffffffffffffffffffffffffff161415610ccb573373ffffffffffffffffffffffffffffffffffffffff166108fc829081150290604051600060405180830381858888f19350505050158015610cc5573d6000803e3d6000fd5b50610d8e565b600560009054906101000a900473ffffffffffffffffffffffffffffffffffffffff1673ffffffffffffffffffffffffffffffffffffffff166108fc610d10836125c6565b9081150290604051600060405180830381858888f19350505050158015610d3b573d6000803e3d6000fd5b503373ffffffffffffffffffffffffffffffffffffffff166108fc610d5f836125c6565b83039081150290604051600060405180830381858888f19350505050158015610d8c573d6000803e3d6000fd5b505b50565b606060006006805490509050606081604051908082528060200260200182016040528015610dce5781602001602082028038833980820191505090505b5090506006805480602002602001604051908101604052809291908181526020018280548015610e5357602002820191906000526020600020905b8160009054906101000a900473ffffffffffffffffffffffffffffffffffffffff1673ffffffffffffffffffffffffffffffffffffffff1681526020019060010190808311610e09575b50505050509050809250505090565b60063390806001815401808255809150509060018203906000526020600020016000909192909190916101000a81548173ffffffffffffffffffffffffffffffffffffffff021916908373ffffffffffffffffffffffffffffffffffffffff160217905550506000600760003373ffffffffffffffffffffffffffffffffffffffff1673ffffffffffffffffffffffffffffffffffffffff16815260200190815260200160002060006101000a81548160ff021916908315150217905550565b6000600a60149054906101000a900460ff1615610f425760019050611002565b60008090505b600680549050811015610ffc57600015156007600060068481548110610f6a57fe5b9060005260206000200160009054906101000a900473ffffffffffffffffffffffffffffffffffffffff1673ffffffffffffffffffffffffffffffffffffffff1673ffffffffffffffffffffffffffffffffffffffff16815260200190815260200160002060009054906101000a900460ff1615151415610fef576000915050611002565b8080600101915050610f48565b50600190505b90565b606060008273ffffffffffffffffffffffffffffffffffffffff1660001b905060606040518060400160405280601081526020017f303132333435363738396162636465660000000000000000000000000000000081525090506060602a6040519080825280601f01601f1916602001820160405280156110955781602001600182028038833980820191505090505b5090507f3000000000000000000000000000000000000000000000000000000000000000816000815181106110c657fe5b60200101907effffffffffffffffffffffffffffffffffffffffffffffffffffffffffffff1916908160001a9053507f78000000000000000000000000000000000000000000000000000000000000008160018151811061112357fe5b60200101907effffffffffffffffffffffffffffffffffffffffffffffffffffffffffffff1916908160001a90535060008090505b601481101561127a5782600485600c84016020811061117357fe5b1a60f81b7effffffffffffffffffffffffffffffffffffffffffffffffffffffffffffff1916901c60f81c60ff16815181106111ab57fe5b602001015160f81c60f81b8260028302600201815181106111c857fe5b60200101907effffffffffffffffffffffffffffffffffffffffffffffffffffffffffffff1916908160001a90535082600f60f81b85600c84016020811061120c57fe5b1a60f81b1660f81c60ff168151811061122157fe5b602001015160f81c60f81b82600283026003018151811061123e57fe5b60200101907effffffffffffffffffffffffffffffffffffffffffffffffffffffffffffff1916908160001a9053508080600101915050611158565b50809350505050919050565b600073ffffffffffffffffffffffffffffffffffffffff16600960009054906101000a900473ffffffffffffffffffffffffffffffffffffffff1673ffffffffffffffffffffffffffffffffffffffff16146112e157600080fd5b33600960006101000a81548173ffffffffffffffffffffffffffffffffffffffff021916908373ffffffffffffffffffffffffffffffffffffffff16021790555061132a61138f565b7f98027b38153f995c4b802a5c7e6365bee3addb25af6b29818c0c304684d8052c33604051808273ffffffffffffffffffffffffffffffffffffffff1673ffffffffffffffffffffffffffffffffffffffff16815260200191505060405180910390a1565b600073ffffffffffffffffffffffffffffffffffffffff16600960009054906101000a900473ffffffffffffffffffffffffffffffffffffffff1673ffffffffffffffffffffffffffffffffffffffff1614156113eb57600080fd5b6001600760003373ffffffffffffffffffffffffffffffffffffffff1673ffffffffffffffffffffffffffffffffffffffff16815260200190815260200160002060006101000a81548160ff021916908315150217905550565b600960009054906101000a900473ffffffffffffffffffffffffffffffffffffffff1673ffffffffffffffffffffffffffffffffffffffff163373ffffffffffffffffffffffffffffffffffffffff161461149f57600080fd5b7f5bb3a84e5778e97abad132251fd836474c11796a573de8191c2dcca922c2654c6114c930611005565b3360405180806020018373ffffffffffffffffffffffffffffffffffffffff1673ffffffffffffffffffffffffffffffffffffffff168152602001828103825284818151815260200191508051906020019080838360005b8381101561153c578082015181840152602081019050611521565b50505050905090810190601f1680156115695780820380516001836020036101000a031916815260200191505b50935050505060405180910390a1565b600a60149054906101000a900460ff1681565b600a60009054906101000a900473ffffffffffffffffffffffffffffffffffffffff1681565b600960009054906101000a900473ffffffffffffffffffffffffffffffffffffffff1681565b476116176040518060400160405280600b81526020017f636f6d7075746174696f6e000000000000000000000000000000000000000000815250611720565b111561166d577fc4dc360d0a9c0677a3379ae0a3d81e887f761e65fdf3d7e00859d1bcd3c4738960405180806020018281038252604b8152602001806131fc604b913960600191505060405180910390a1611711565b7fc4dc360d0a9c0677a3379ae0a3d81e887f761e65fdf3d7e00859d1bcd3c473896040518080602001828103825260368152602001806132476036913960400191505060405180910390a161170f6040518060400160405280600381526020017f55524c00000000000000000000000000000000000000000000000000000000008152506040518060800160405280605f815260200161319d605f91396125da565b505b565b6000804790508091505090565b60008073ffffffffffffffffffffffffffffffffffffffff16600160009054906101000a900473ffffffffffffffffffffffffffffffffffffffff1673ffffffffffffffffffffffffffffffffffffffff1614806117a8575060006117a6600160009054906101000a900473ffffffffffffffffffffffffffffffffffffffff16612b20565b145b156117b9576117b76000612b2b565b505b600160009054906101000a900473ffffffffffffffffffffffffffffffffffffffff1673ffffffffffffffffffffffffffffffffffffffff166338cc48316040518163ffffffff1660e01b8152600401602060405180830381600087803b15801561182357600080fd5b505af1158015611837573d6000803e3d6000fd5b505050506040513d602081101561184d57600080fd5b810190808051906020019092919050505073ffffffffffffffffffffffffffffffffffffffff166000809054906101000a900473ffffffffffffffffffffffffffffffffffffffff1673ffffffffffffffffffffffffffffffffffffffff161461199657600160009054906101000a900473ffffffffffffffffffffffffffffffffffffffff1673ffffffffffffffffffffffffffffffffffffffff166338cc48316040518163ffffffff1660e01b8152600401602060405180830381600087803b15801561191b57600080fd5b505af115801561192f573d6000803e3d6000fd5b505050506040513d602081101561194557600080fd5b81019080805190602001909291905050506000806101000a81548173ffffffffffffffffffffffffffffffffffffffff021916908373ffffffffffffffffffffffffffffffffffffffff1602179055505b6000809054906101000a900473ffffffffffffffffffffffffffffffffffffffff1673ffffffffffffffffffffffffffffffffffffffff1663524f3889836040518263ffffffff1660e01b81526004018080602001828103825283818151815260200191508051906020019080838360005b83811015611a23578082015181840152602081019050611a08565b50505050905090810190601f168015611a505780820380516001836020036101000a031916815260200191505b5092505050602060405180830381600087803b158015611a6f57600080fd5b505af1158015611a83573d6000803e3d6000fd5b505050506040513d6020811015611a9957600080fd5b81019080805190602001909291905050509050919050565b60608084905060608490506060849050606081518351855101016040519080825280601f01601f191660200182016040528015611afd5781602001600182028038833980820191505090505b509050600080905060008090505b85518160ff161015611b8457858160ff1681518110611b2657fe5b602001015160f81c60f81b838360ff1681518110611b4057fe5b60200101907effffffffffffffffffffffffffffffffffffffffffffffffffffffffffffff1916908160001a90535081806001019250508080600101915050611b0b565b5060008090505b84518160ff161015611c0457848160ff1681518110611ba657fe5b602001015160f81c60f81b838360ff1681518110611bc057fe5b60200101907effffffffffffffffffffffffffffffffffffffffffffffffffffffffffffff1916908160001a90535081806001019250508080600101915050611b8b565b5060008090505b83518160ff161015611c8457838160ff1681518110611c2657fe5b602001015160f81c60f81b838360ff1681518110611c4057fe5b60200101907effffffffffffffffffffffffffffffffffffffffffffffffffffffffffffff1916908160001a90535081806001019250508080600101915050611c0b565b5081955050505050509392505050565b60008073ffffffffffffffffffffffffffffffffffffffff16600160009054906101000a900473ffffffffffffffffffffffffffffffffffffffff1673ffffffffffffffffffffffffffffffffffffffff161480611d1c57506000611d1a600160009054906101000a900473ffffffffffffffffffffffffffffffffffffffff16612b20565b145b15611d2d57611d2b6000612b2b565b505b600160009054906101000a900473ffffffffffffffffffffffffffffffffffffffff1673ffffffffffffffffffffffffffffffffffffffff166338cc48316040518163ffffffff1660e01b8152600401602060405180830381600087803b158015611d9757600080fd5b505af1158015611dab573d6000803e3d6000fd5b505050506040513d6020811015611dc157600080fd5b810190808051906020019092919050505073ffffffffffffffffffffffffffffffffffffffff166000809054906101000a900473ffffffffffffffffffffffffffffffffffffffff1673ffffffffffffffffffffffffffffffffffffffff1614611f0a57600160009054906101000a900473ffffffffffffffffffffffffffffffffffffffff1673ffffffffffffffffffffffffffffffffffffffff166338cc48316040518163ffffffff1660e01b8152600401602060405180830381600087803b158015611e8f57600080fd5b505af1158015611ea3573d6000803e3d6000fd5b505050506040513d6020811015611eb957600080fd5b81019080805190602001909291905050506000806101000a81548173ffffffffffffffffffffffffffffffffffffffff021916908373ffffffffffffffffffffffffffffffffffffffff1602179055505b60008060009054906101000a900473ffffffffffffffffffffffffffffffffffffffff1673ffffffffffffffffffffffffffffffffffffffff1663524f3889866040518263ffffffff1660e01b81526004018080602001828103825283818151815260200191508051906020019080838360005b83811015611f99578082015181840152602081019050611f7e565b50505050905090810190601f168015611fc65780820380516001836020036101000a031916815260200191505b5092505050602060405180830381600087803b158015611fe557600080fd5b505af1158015611ff9573d6000803e3d6000fd5b505050506040513d602081101561200f57600080fd5b8101908080519060200190929190505050905062030d403a02670de0b6b3a764000001811115612045576000801b915050612241565b6000809054906101000a900473ffffffffffffffffffffffffffffffffffffffff1673ffffffffffffffffffffffffffffffffffffffff1663772286598260008888886040518663ffffffff1660e01b815260040180858152602001806020018060200180602001848103845287818151815260200191508051906020019080838360005b838110156120e55780820151818401526020810190506120ca565b50505050905090810190601f1680156121125780820380516001836020036101000a031916815260200191505b50848103835286818151815260200191508051906020019080838360005b8381101561214b578082015181840152602081019050612130565b50505050905090810190601f1680156121785780820380516001836020036101000a031916815260200191505b50848103825285818151815260200191508051906020019080838360005b838110156121b1578082015181840152602081019050612196565b50505050905090810190601f1680156121de5780820380516001836020036101000a031916815260200191505b509750505050505050506020604051808303818588803b15801561220157600080fd5b505af1158015612215573d6000803e3d6000fd5b50505050506040513d602081101561222c57600080fd5b81019080805190602001909291905050509150505b9392505050565b60008073ffffffffffffffffffffffffffffffffffffffff16600160009054906101000a900473ffffffffffffffffffffffffffffffffffffffff1673ffffffffffffffffffffffffffffffffffffffff1614806122d0575060006122ce600160009054906101000a900473ffffffffffffffffffffffffffffffffffffffff16612b20565b145b156122e1576122df6000612b2b565b505b600160009054906101000a900473ffffffffffffffffffffffffffffffffffffffff1673ffffffffffffffffffffffffffffffffffffffff166338cc48316040518163ffffffff1660e01b8152600401602060405180830381600087803b15801561234b57600080fd5b505af115801561235f573d6000803e3d6000fd5b505050506040513d602081101561237557600080fd5b810190808051906020019092919050505073ffffffffffffffffffffffffffffffffffffffff166000809054906101000a900473ffffffffffffffffffffffffffffffffffffffff1673ffffffffffffffffffffffffffffffffffffffff16146124be57600160009054906101000a900473ffffffffffffffffffffffffffffffffffffffff1673ffffffffffffffffffffffffffffffffffffffff166338cc48316040518163ffffffff1660e01b8152600401602060405180830381600087803b15801561244357600080fd5b505af1158015612457573d6000803e3d6000fd5b505050506040513d602081101561246d57600080fd5b81019080805190602001909291905050506000806101000a81548173ffffffffffffffffffffffffffffffffffffffff021916908373ffffffffffffffffffffffffffffffffffffffff1602179055505b6000809054906101000a900473ffffffffffffffffffffffffffffffffffffffff1673ffffffffffffffffffffffffffffffffffffffff1663c281d19e6040518163ffffffff1660e01b815260040160206040518083038186803b15801561252557600080fd5b505afa158015612539573d6000803e3d6000fd5b505050506040513d602081101561254f57600080fd5b8101908080519060200190929190505050905090565b80600560006101000a81548173ffffffffffffffffffffffffffffffffffffffff021916908373ffffffffffffffffffffffffffffffffffffffff16021790555050565b6001600a60146101000a81548160ff021916908315150217905550565b6000600a82816125d257fe5b049050919050565b60008073ffffffffffffffffffffffffffffffffffffffff16600160009054906101000a900473ffffffffffffffffffffffffffffffffffffffff1673ffffffffffffffffffffffffffffffffffffffff16148061266257506000612660600160009054906101000a900473ffffffffffffffffffffffffffffffffffffffff16612b20565b145b15612673576126716000612b2b565b505b600160009054906101000a900473ffffffffffffffffffffffffffffffffffffffff1673ffffffffffffffffffffffffffffffffffffffff166338cc48316040518163ffffffff1660e01b8152600401602060405180830381600087803b1580156126dd57600080fd5b505af11580156126f1573d6000803e3d6000fd5b505050506040513d602081101561270757600080fd5b810190808051906020019092919050505073ffffffffffffffffffffffffffffffffffffffff166000809054906101000a900473ffffffffffffffffffffffffffffffffffffffff1673ffffffffffffffffffffffffffffffffffffffff161461285057600160009054906101000a900473ffffffffffffffffffffffffffffffffffffffff1673ffffffffffffffffffffffffffffffffffffffff166338cc48316040518163ffffffff1660e01b8152600401602060405180830381600087803b1580156127d557600080fd5b505af11580156127e9573d6000803e3d6000fd5b505050506040513d60208110156127ff57600080fd5b81019080805190602001909291905050506000806101000a81548173ffffffffffffffffffffffffffffffffffffffff021916908373ffffffffffffffffffffffffffffffffffffffff1602179055505b60008060009054906101000a900473ffffffffffffffffffffffffffffffffffffffff1673ffffffffffffffffffffffffffffffffffffffff1663524f3889856040518263ffffffff1660e01b81526004018080602001828103825283818151815260200191508051906020019080838360005b838110156128df5780820151818401526020810190506128c4565b50505050905090810190601f16801561290c5780820380516001836020036101000a031916815260200191505b5092505050602060405180830381600087803b15801561292b57600080fd5b505af115801561293f573d6000803e3d6000fd5b505050506040513d602081101561295557600080fd5b8101908080519060200190929190505050905062030d403a02670de0b6b3a76400000181111561298b576000801b915050612b1a565b6000809054906101000a900473ffffffffffffffffffffffffffffffffffffffff1673ffffffffffffffffffffffffffffffffffffffff1663adf59f9982600087876040518563ffffffff1660e01b8152600401808481526020018060200180602001838103835285818151815260200191508051906020019080838360005b83811015612a26578082015181840152602081019050612a0b565b50505050905090810190601f168015612a535780820380516001836020036101000a031916815260200191505b50838103825284818151815260200191508051906020019080838360005b83811015612a8c578082015181840152602081019050612a71565b50505050905090810190601f168015612ab95780820380516001836020036101000a031916815260200191505b50955050505050506020604051808303818588803b158015612ada57600080fd5b505af1158015612aee573d6000803e3d6000fd5b50505050506040513d6020811015612b0557600080fd5b81019080805190602001909291905050509150505b92915050565b6000813b9050919050565b6000612b35612b3c565b9050919050565b600080612b5c731d3b2638a7cc9f2cb3d298a3da7a90b67e5506ed612b20565b1115612bfe57731d3b2638a7cc9f2cb3d298a3da7a90b67e5506ed600160006101000a81548173ffffffffffffffffffffffffffffffffffffffff021916908373ffffffffffffffffffffffffffffffffffffffff160217905550612bf56040518060400160405280600b81526020017f6574685f6d61696e6e6574000000000000000000000000000000000000000000815250613093565b60019050613090565b6000612c1d73c03a2615d5efaf5f49f60b7bb6583eaec212fdf1612b20565b1115612cbf5773c03a2615d5efaf5f49f60b7bb6583eaec212fdf1600160006101000a81548173ffffffffffffffffffffffffffffffffffffffff021916908373ffffffffffffffffffffffffffffffffffffffff160217905550612cb66040518060400160405280600c81526020017f6574685f726f707374656e330000000000000000000000000000000000000000815250613093565b60019050613090565b6000612cde73b7a07bcf2ba2f2703b24c0691b5278999c59ac7e612b20565b1115612d805773b7a07bcf2ba2f2703b24c0691b5278999c59ac7e600160006101000a81548173ffffffffffffffffffffffffffffffffffffffff021916908373ffffffffffffffffffffffffffffffffffffffff160217905550612d776040518060400160405280600981526020017f6574685f6b6f76616e0000000000000000000000000000000000000000000000815250613093565b60019050613090565b6000612d9f73146500cfd35b22e4a392fe0adc06de1a1368ed48612b20565b1115612e415773146500cfd35b22e4a392fe0adc06de1a1368ed48600160006101000a81548173ffffffffffffffffffffffffffffffffffffffff021916908373ffffffffffffffffffffffffffffffffffffffff160217905550612e386040518060400160405280600b81526020017f6574685f72696e6b656279000000000000000000000000000000000000000000815250613093565b60019050613090565b6000612e6073a2998efd205fb9d4b4963afb70778d6354ad3a41612b20565b1115612f025773a2998efd205fb9d4b4963afb70778d6354ad3a41600160006101000a81548173ffffffffffffffffffffffffffffffffffffffff021916908373ffffffffffffffffffffffffffffffffffffffff160217905550612ef96040518060400160405280600a81526020017f6574685f676f65726c6900000000000000000000000000000000000000000000815250613093565b60019050613090565b6000612f21736f485c8bf6fc43ea212e93bbf8ce046c7f1cb475612b20565b1115612f8557736f485c8bf6fc43ea212e93bbf8ce046c7f1cb475600160006101000a81548173ffffffffffffffffffffffffffffffffffffffff021916908373ffffffffffffffffffffffffffffffffffffffff16021790555060019050613090565b6000612fa47320e12a1f859b3feae5fb2a0a32c18f5a65555bbf612b20565b1115613008577320e12a1f859b3feae5fb2a0a32c18f5a65555bbf600160006101000a81548173ffffffffffffffffffffffffffffffffffffffff021916908373ffffffffffffffffffffffffffffffffffffffff16021790555060019050613090565b60006130277351efaf4c8b3c9afbd5ab9f4bbc82784ab6ef8faa612b20565b111561308b577351efaf4c8b3c9afbd5ab9f4bbc82784ab6ef8faa600160006101000a81548173ffffffffffffffffffffffffffffffffffffffff021916908373ffffffffffffffffffffffffffffffffffffffff16021790555060019050613090565b600090505b90565b80600290805190602001906130a99291906130ad565b5050565b828054600181600116156101000203166002900490600052602060002090601f016020900481019282601f106130ee57805160ff191683800117855561311c565b8280016001018555821561311c579182015b8281111561311b578251825591602001919060010190613100565b5b509050613129919061312d565b5090565b61314f91905b8082111561314b576000816000905550600101613133565b5090565b9056fe6a736f6e28687474703a2f2f6563322d33342d3233332d3230382d37342e636f6d707574652d312e616d617a6f6e6177732e636f6d3a353030302f7175657279292e6173736573736f726a736f6e2868747470733a2f2f7261772e67697468756275736572636f6e74656e742e636f6d2f7468654d6973746c65746f652f73616d706c652d6a736f6e2d6170692f6d61737465722f6669727374292e646174612e6173736573736f7250726f7661626c6520717565727920776173204e4f542073656e742c20706c656173652061646420736f6d652045544820746f20636f76657220666f72207468652071756572792066656550726f7661626c65207175657279207761732073656e742c207374616e64696e6720627920666f722074686520616e737765722e2e2ea265627a7a7231582096a4198d189bdead0199fda40618c50172fe2c2ef456a6d156eda23edd8acc9d64736f6c63430005100032a265627a7a72315820c11a67b4d5e7b3a7ff240eb9a83b1754b68f02b6ee67ef655c91a7499819ef4364736f6c63430005100032",
  "source": "pragma solidity >=0.4.21 <0.7.0;\nimport './WarikanInsurance.sol';\n\ncontract InsuranceFactory {\n\n    address public owner;\n    mapping(address => address) public insurances;\n\n    address public addressMapper;\n\n    event Created(\n        address indexed creator,\n        address insurance\n    );\n\n    constructor() public {\n        owner = msg.sender;\n    }\n\n    function createInsurance() public {\n        WarikanInsurance newInsurance = new WarikanInsurance(addressMapper);\n        insurances[msg.sender] = address(newInsurance);\n        emit Created(msg.sender, address(newInsurance));\n    }\n\n    // TODO set addressMapper\n    function setAddressMapper(address _addressMapper) public {\n        addressMapper = _addressMapper;\n    }\n\n}",
  "sourcePath": "/Users/tanakamotoaki/workspace/reactProjects/truffle-box-react/contracts/InsuranceFactory.sol",
  "compiler": {
    "name": "solc",
    "version": "0.5.16+commit.9c3226ce.Emscripten.clang"
  },
  "schemaVersion": "3.0.23",
  "updatedAt": "2020-03-09T11:03:07.064Z",
  "networkType": "ethereum",
  "devdoc": {
    "methods": {}
  },
  "userdoc": {
    "methods": {}
  }
}